:020000040800F2
:10000000D00400209D010008EB1A00082916000802
:10001000E91A000899080008FB1C0008000000000D
:10002000000000000000000000000000EF1A0008BF
:100030009B08000800000000ED1A0008F11A0008F3
:10004000B7010008B7010008B7010008B7010008B0
:10005000B7010008B7010008B7010008B7010008A0
:10006000B7010008B7010008B7010008B701000890
:10007000B7010008B7010008B7010008B701000880
:10008000B7010008B7010008B7010008B701000870
:10009000B7010008B7010008B7010008B701000860
:1000A000B7010008B7010008B7010008B701000850
:1000B000B7010008B7010008B7010008B701000840
:1000C000B7010008B7010008B7010008B701000830
:1000D000B7010008B7010008B7010008B701000820
:1000E000B7010008B7010008B7010008B701000810
:1000F000B7010008B7010008B7010008B701000800
:10010000B7010008B7010008B7010008B7010008EF
:10011000B7010008B7010008B7010008B7010008DF
:10012000B7010008B7010008B7010008B7010008CF
:10013000B7010008B7010008B7010008B7010008BF
:10014000B7010008B7010008B7010008B7010008AF
:10015000B7010008B7010008B7010008B70100089F
:10016000B7010008B7010008B7010008B70100088F
:10017000B7010008B7010008B7010008000000003F
:10018000B7010008B7010008DFF80CD000F0CAFA88
:100190000048004745270008D00400200648804753
:1001A00006480047FEE7FEE7FEE7FEE7FEE7FEE75C
:1001B000FEE7FEE7FEE7FEE7751B00088901000881
:1001C0002DE9F05F0546002092469B46884606468C
:1001D000814640241BE0284641464746224600F01F
:1001E000EFF853465A46C01A914110D311461846AB
:1001F000224600F0D6F82D1A67EB01084F4622463A
:100200000120002100F0CDF817EB00094E41201E1F
:10021000A4F10104DFDC484631462A464346BDE8E6
:10022000F09FD2B201E000F8012B491EFBD27047CB
:100230000022F6E710B513460A4604461946FFF7B2
:10024000F0FF204610BD2DE9FE4F81EA030404F0C3
:10025000004421F0004100944FF0000B23F00043D4
:1002600050EA010402D052EA030404D100200146FE
:1002700003B0BDE8F08FC3F30A54C1F30A552C4410
:10028000A4F2F3340194A0FB0254C1F3130141F42E
:100290008011C3F3130343F4801301FB024400FBFA
:1002A000034E840A970A44EA815447EA8357A4FB21
:1002B000076802958D0A05FB07854FEA932C04FB1E
:1002C0000C542705029D4FEA065847EA1637B5EB4E
:1002D00008056EEB070C870E920E47EA811742EA7B
:1002E0008312A7FB0201B6EB0B0164EB00042B0D9C
:1002F00043EA0C335E1844EB1C50DA465146E7FBE8
:100300000201C5F313044FEA0B3343EA14534FEAD7
:100310000432019C43EA0603A4F10C040294009CFD
:10032000CDE900B400F069F8A2E70EB540F2334120
:1003300002910021CDE900110A460B4600F05DF85C
:1003400003B000BDC1F30A5210B5C1F3130140F26E
:10035000FF3341F480119A4201DA002010BD40F2CF
:1003600033439A42A2F2334203DC524200F028F8AF
:1003700010BD904010BD30B50B4601460020202234
:10038000012409E021FA02F59D4205D303FA02F5A2
:10039000491B04FA02F52844151EA2F10102F1DC02
:1003A00030BD202A04DB203A00FA02F10020704719
:1003B0009140C2F1200320FA03F3194390407047A3
:1003C000202A04DB203A21FA02F00021704721FAAA
:1003D00002F3D040C2F12002914008431946704711
:1003E00010B5002B08DA401C41F1000192185B4166
:1003F0001A4301D120F0010010BD2DE9F04D9246C5
:100400009B4611B1B1FA81F202E0B0FA80F22032DB
:100410009046FFF7C6FF04460F4640EA0A0041EA4D
:100420000B0153465A46084303D120463946BDE8DE
:10043000F08D114653EA010015D0C8F14002504634
:10044000FFF7BEFF05460E46504659464246FFF7A7
:10045000A8FF084301D0012000E00020054346EA40
:10046000E0762C4337430A984FEA4453A0EB080048
:100470004FEAD4240A304FF0000244EA47544FEACE
:10048000D72502D500200146D1E7010510196941A1
:10049000DDE9084500196941BDE8F04DA0E72DE907
:1004A000FE4F804681EA0300C00F0C46009021F009
:1004B000004123F00045B8EB0200A94105D24046B7
:1004C000214690461C460B46024623F0004010434E
:1004D00004D14046214603B0BDE8F08F270DC7F395
:1004E0000A00C3F30A510290401A0190402866DACC
:1004F000C3F3130040F4801B0098924620B1002300
:10050000D2EB030A63EB0B0B01985946C0F1400292
:100510005046FFF746FF06460D4650465946019A9B
:1005200000F012F910EB08006141002487EA115233
:1005300084EAE7731A433BD0009A3AB3019A012A3E
:100540004FEA075210DC001B61EB02014FF0004242
:1005500002EA0752CDE90042001C41F58011324603
:100560002B46FFF74AFFB6E7001B61EB0201001CB8
:1005700041F5801300185B412018A2F5001747EBE6
:10058000030140EAD570B6196D4111E06D084FEADC
:10059000360645EAC0754FEA0752001B61EB0201BF
:1005A000001C41F5801149084FEA30000019514103
:1005B00032462B4603B0BDE8F04FFFF711BF00985D
:1005C000012240000023D0EB020263EBE0730098AD
:1005D00021464FEAE074B8EB000061EB0401E9E763
:1005E00083F000435BE781F0004158E72DE9F04DCF
:1005F00081EA030404F0004B21F0004514464FF05B
:10060000000A23F0004150EA050220D054EA01021A
:100610001DD0C5F30A570246C5F31303C1F31300F7
:10062000C1F30A5640F4801543F48013A7EB060883
:10063000101BD64608F2FD3873EB050002D308F113
:10064000010801E092185B41B8F1000F03DA0020C5
:100650000146BDE8F08D00204FF480110646844627
:100660000EE0171B73EB050705D3121B63EB0503A5
:1006700006434CEA010C49084FEA300092185B41EE
:1006800050EA0107EDD152EA030012D082EA0400D9
:1006900083EA0501084303D100224FF0004308E03C
:1006A000101BAB4102D20122002302E06FF00102D5
:1006B00053101AEB06004CEB085110EB0A0041EB0B
:1006C0000B01BDE8F04DFFF78BBEC1F30A52C1F339
:1006D000130140F2FF3341F480119A4202DA002004
:1006E0000146704740F233439A42A2F2334202DCA1
:1006F0005242FFF765BEFFF754BE000030B5002937
:1007000004DB4FF00044404264EB0101002B04DBAA
:100710004FF00044524264EB0303994208BF9042F9
:1007200030BD0000064C074D06E0E06840F00103D4
:1007300094E8070098471034AC42F6D3FFF728FD41
:10074000E428000804290008202A06DBCB17203AF9
:1007500041FA02F043EAE07306E041FA02F3D040C6
:10076000C2F120029140084319467047464910B52E
:100770004A6822F440324A604A6843681A434A6031
:1007800001684A6822F480724A6001684A68036915
:1007900042EA03224A6001684A6822F040724A60D5
:1007A00001684A6883681A434A6001688A6822F4CB
:1007B00000628A6001688A68C3681A438A60334AA3
:1007C000816A914201688A6822F070628A600168D9
:1007D0008A680CD0836A1A438A6001688A6822F0AA
:1007E00040528A6001688A68C36A1A4301E022F0B5
:1007F00040528A6001688A6822F002028A600168B9
:100800008A68037E42EA43028A6090F82010002939
:1008100001684A680FD042F400624A6001684A6881
:1008200022F460424A6001684A68194C436A04EB4A
:1008300043331A4301E022F400624A600168CA6A45
:1008400022F47002CA620168CA6A838B114C04EBFD
:1008500003531A43CA6201688A6822F400728A60EC
:1008600001688A6890F8303042EA43228A60016861
:100870008A6822F480628A6001688A68406942EA74
:100880008020886010BD0000002301400100000F9F
:1008900000E0FFFF0000F0FFFEE7704778B500249E
:1008A000009490F83C20012A19D0012280F83C20C5
:1008B0000A6807230568092A13D9EE680A3A02EB89
:1008C000420293409E43EE600B788A680A3B03EB3A
:1008D00043039A400368DD682A43DA6010E002208F
:1008E00078BD2E6902EB420293409E432E610B7845
:1008F0008A6803EB43039A4003681D692A431A611F
:100900004A681F23072A13D205686E6B521E02EB3A
:10091000820293409E436E630B790A885B1E92B2FB
:1009200003EB83039A4003685D6B2A435A6327E015
:1009300005680D2A12D22E6BD21F02EB8202934061
:100940009E432E630B790A88DB1F92B203EB83036D
:100950009A4003681D6B2A431A6311E0EE6A0D3A50
:1009600002EB820293409E43EE620B790A880D3BB4
:1009700092B203EB83039A400368DD6A2A43DA628A
:10098000164B0568144A9D4206D10D68122D03D1FD
:10099000556845F48005556005689D4218D10B687F
:1009A000102B01D0112B13D1536843F40003536073
:1009B000096810290CD10A490A4A0968B1FBF2F109
:1009C00001EB8101490000E0491E00910029FBD1A3
:1009D00080F83C40002078BD002301400020014009
:1009E0004400002040420F000068C06C704770B5A2
:1009F00004004FF0000503D0206C002610B107E082
:100A0000012070BD204600F01DF8666484F83C604B
:100A1000206CC00610D4206C20F4885040F00200F6
:100A200020642046FFF7A2FE6664206C20F00200DE
:100A300040F00100206400E0012584F83C60284675
:100A400070BD000010B586B0044614216846FFF75B
:100A5000EFFB1149206888421CD110480021026830
:100A600042F480720260006800F4807005900B48C8
:100A70001438026842F001020260006800F00100D0
:100A80000590012000900320CDE90101694604484A
:100A900000F0EAF806B010BD0020014044380240E2
:100AA000000002402DE9F041044600680D468168CF
:100AB0004FF0000749050BD58068C00508D5206CAC
:100AC00040F02000206484F83C700120BDE8F081F3
:100AD00000F0AEF906460FE0681C0DD025B100F01D
:100AE000A7F9801BA84207D9206C40F004002064BD
:100AF00084F83C700320E9E7206800688007EBD5A4
:100B000021686FF012000860206C40F400702064CF
:100B10002068816811F0405F13D1217E89B9C16AD4
:100B200011F4700F02D0806840050AD4206C20F4C4
:100B300080702064206CC00403D4206C40F001005D
:100B400020640020C2E7000018B50021009190F851
:100B50003C20012A07D0012280F83C2002689368DB
:100B6000DB0702D013E0022018BD936843F00103B5
:100B700093602D4A2D4B1268B2FBF3F202EB420256
:100B800002E000BFA2F101020092002AFAD102683D
:100B90009368DB0746D0036C40F20164A34343F43F
:100BA0008073036453685B0505D5036C23F400531D
:100BB00043F480530364036CDB0404D5436C23F0DB
:100BC0000603436400E0416480F83C10184B6FF06A
:100BD0002201116001684A68164C22434A60596834
:100BE0000068CA06144906D088421BD1816811F0FA
:100BF000405F13D016E08842F8D0104A904203D1EB
:100C0000D1F80423D206F1D00D4A90420AD1D1F88E
:100C1000041301F01F011029E8D303E0816841F0BB
:100C200080418160002018BD4400002040420F0038
:100C30000023014020000004002001400021014069
:100C40000022014070B5044600F0F2F80546601C31
:100C500002D004480078044400F0EAF8401BA042A7
:100C6000FAD370BD380000202DE9F84FDFF880B1CD
:100C700000224FF001084FF0030A4FF00F090BF16B
:100C8000040E00BF0B6808FA02F42340A34270D19F
:100C90004D68022D01D0122D0ED1D50800EB850C28
:100CA000DCF820505607F70E09FA07F6B5430E692F
:100CB000BE402E43CCF82060066855000F790AFA32
:100CC00005FC07F0030726EA0C06AF403743076030
:100CD0004E68012E05D0022E03D0112E01D0122E07
:100CE00010D18768CE6827EA0C0706FA05F63E435E
:100CF00086604668A6430C79C4F3001404FA02F433
:100D000034434460C4688E6824EA0C0406FA05F68D
:100D10002643C6604C68E40064D5364C256845F42B
:100D200080452560246822F0030504F48044009483
:100D3000314C2E19346895072F0F09FA07F5AC438B
:100D40002E4DA84201D1002524E02D4DA84201D10D
:100D500001251FE02B4DA84201D102251AE02A4DA2
:100D6000A84201D1032515E0284DA84202D104254F
:100D700010E037E0264DA84201D105250AE0254DB7
:100D8000A84201D1062505E0234DA84201D107253F
:100D900000E0082505FA07F525433560DBF800403B
:100DA0005D464E689C43F60300D51C432C60DEF87C
:100DB000004075464E689C43B60300D51C432C602A
:100DC0000B4D08352C684E689C43F60200D51C4339
:100DD0002C60074D0C352C684E689C43B60200D53C
:100DE0001C432C60521C102AFFF44CAFBDE8F88F56
:100DF000003C0140443802400838014000000240F5
:100E00000004024000080240000C024000100240B2
:100E10000014024000180240001C02400069084013
:100E200000D0012070470AB1816170470904FBE7D7
:100E3000014880687047000038000020024881683F
:100E40000278114481607047380000200B4810B5CB
:100E5000016841F400710160016841F48061016042
:100E6000016841F480710160032000F061F8002006
:100E700000F006F800F024F8002010BD003C02400D
:100E800070B50D4D04464FF47A712878B1FBF0F03F
:100E90000A490968B1FBF0F000F0E6FA48B9102CF5
:100EA00007D200222146501E00F022F800206C607C
:100EB00070BD012070BD00003800002044000020FB
:100EC0000A4808B5016841F480410160006800F4F7
:100ED000804000900548001F016841F0805101608A
:100EE000006800F08050009008BD000044380240C7
:100EF000F0B40E4B1B680C46C3F30223C3F1070585
:100F0000042D00D90425191D072901D2002300E072
:100F1000DB1E012606FA05F1491E214099409E403C
:100F2000761E16403143F0BC00F0FCBE0CED00E034
:100F3000064900F0070208684FF6FF03184040EA30
:100F40000220034A10430860704700000CED00E0E7
:100F50000000FA052DE9F0470E46050065D0DFF8E0
:100F60001481D8F80000F7B200F00F00B04207D2A9
:100F700088F80070D8F8000000F00F00B04254D19B
:100F800028683D4C810712D5400703D5206840F4FE
:100F9000E05020602878000703D5206840F46040C6
:100FA00020602068A96820F0F000084320602878BD
:100FB000C0072DD0304968680839012812D00228AE
:100FC00013D0032811D00968890700292DDA216878
:100FD00021F0030101432160FFF72AFF814641F21E
:100FE000883A0EE009688903EFE709688901ECE7B0
:100FF000FFF71EFFA0EB0901514502D90320BDE810
:10100000F0872068696800F00C00B0EB810FEFD129
:10101000D8F80010404601F00F01B14207D907701F
:10102000006800F00F00B04201D00120E7E7287807
:10103000400705D52068E96820F4E05008432060A7
:101040002878000706D52068296920F4604040EA26
:10105000C100206000F046F82168084AC1F303117E
:10106000515CC840064908600020FFF709FF0020D6
:10107000C5E70000003C024008380240CC280008C8
:10108000440000200F2202600C4A136803F003039F
:101090004360136803F0F0038360136803F4E053C4
:1010A000C36012684FF4E05303EAD20202610448BD
:1010B000006800F00F000860704700000838024028
:1010C000003C02400448054900680968044AC1F32D
:1010D0008221515CC840704744000020083802401B
:1010E000DC280008154810B5006810F00C02144800
:1010F00013D01449042A0FD0082A0ED10F4C241FF4
:101100002268236802F03F025B0207D52068C0F323
:101110008810A0FB010106E0084610BD2168C1F35C
:101120008811A1FB00010023FFF74AF82168C1F3F1
:101130000141491C4900B0FBF1F010BD08380240E4
:101140000024F40040787D012DE9F84F050076D0A9
:101150002878DFF8FCB2BF4CC00749D0DBF800109C
:101160005846C1F38101012908D00068C0F381000D
:1011700002280AD1201D0068400206D5206880039D
:1011800036D568680028E2D032E06868B0F5803F64
:1011900010D0B0F5A02F206810D020F4803020604F
:1011A000206820F4802020606868A0B1FFF740FE2E
:1011B00006460CE0206840F48030F4E740F48020DC
:1011C0002060F7E7FFF734FE801B642873D820689F
:1011D0008003F7D50CE0FFF72BFE064605E000BFC5
:1011E000FFF726FE801B6428F0D820688003F7D420
:1011F0002878DFF8648280074FF000093ED5DBF8DD
:101200000010584611F00C0F09D00068C0F381009F
:1012100002280BD18E48001F0068400206D42068C7
:10122000800715D5E868012809D111E0E868B8B150
:101230000120C8F80000FFF7FBFD064605E004E1C9
:10124000FFF7F6FD801B0228C0D820688007F7D57D
:101250002068296920F0F80040EAC10020600DE014
:10126000C8F80090FFF7E4FD064604E0FFF7E0FD54
:10127000801B0228AAD820688007F7D428780007A6
:1012800022D5734E754869696C3671B101210160D0
:10129000FFF7CEFD074604E0FFF7CAFDC01B02289A
:1012A00009D830688007F7D50EE0C0F80090FFF746
:1012B000BFFD074605E082E0FFF7BAFDC01B02282C
:1012C0007DD830688007F7D42878400769D5DFF8E3
:1012D00080A100270AF1380ADAF80000C0000BD418
:1012E000DAF8001041F08051CAF80010DAF8000076
:1012F000012700F080500090594E3068C00510D48E
:10130000306840F480703060FFF792FD009005E097
:10131000FFF78EFD0099401A022850D83068C005AA
:10132000F6D54B4EA868683601280FD005283068DE
:1013300010D020F001003060306820F004003060F0
:10134000A868B8B1FFF774FD00900FE0306840F076
:101350000100F4E740F004003060F7E7FFF768FDB4
:101360000099411A41F28830814266D8306880077E
:10137000F4D50EE0FFF75CFD009007E0FFF758FDA5
:101380000099411A41F28830814256D8306880076E
:10139000F4D4012F05D1DAF8001021F08051CAF8F9
:1013A0000010A869C8B3DBF80010C1F3810102295D
:1013B0004BD00228484607D0C8F8600000E03CE067
:1013C000FFF736FD05463BE04746C8F86000FFF7EB
:1013D0002FFD064605E000BFFFF72AFD801B02280F
:1013E0002BD820688001F7D4D5E907010843A96A02
:1013F0001C4A490802EB01416A6A41EA821108432A
:1014000095F82C1040EA01611148001F016001208D
:101410003866FFF70DFD054605E014E0FFF708FD0F
:10142000401B022809D820688001F7D50BE000BFD7
:10143000FFF7FEFC401B022802D90320BDE8F88F0D
:1014400020688001F4D40020F8E70120F6E70000CE
:10145000083802400038024000004742800E4742F0
:10146000007000400000FFFF10B5401EB0F1807F0B
:1014700001D3012010BD4FF0E02460610F216017FF
:1014800000F050FC0020A06107202061002010BD6A
:1014900070B590F83C20012A19D0012400F83C4F87
:1014A0000222427050F83C3C5A689D6822F0700657
:1014B0000A684968324325F0800529435A6050F88C
:1014C0003C2C9160447000210170084670BD0220E0
:1014D00070BD10B5040003D094F83D0010B107E0D2
:1014E000012010BD002084F83C00204600F00CF8DC
:1014F000022084F83D00211D206800F065FB0120DA
:1015000084F83D00002010BD08B5006806498842F7
:1015100008D10648016841F001010160006800F04F
:101520000100009008BD0000000001404438024066
:10153000022180F83D1001688A6802F00702062A3D
:1015400003D00A6842F001020A60012180F83D10D0
:101550000020704770B5044690F83C00012817D071
:10156000012584F83C50022084F83D002068826800
:1015700022F0770222F47F4282600868502830D03F
:101580000DDC20284CD005DC98B310283BD147E077
:10159000022070BD302843D0402834D138E0602884
:1015A00028D0702806D0B0F5805F2CD0B0F5005F51
:1015B00029D10AE04A68083120680AC900F068FBAE
:1015C0002068816841F0770109E04A6808312068A5
:1015D0000AC900F05DFB2068816841F480418160A8
:1015E00011E0CA684968206800F064FB5021206857
:1015F00007E015E0CA684968206800F06CFB6021CC
:10160000206800F04FFB3C3465700020207070BDF6
:10161000CA684968206800F04DFB40212068F0E767
:10162000226801461046ECE7FEE70121022000F0A7
:10163000D7B800002DE9F04106ACB4E8E0101E4C2C
:10164000A061A180E280236225826682A782A4F83D
:1016500016C000F053F8022020702820A07014203B
:10166000FFF7F0FA032000F03BF90520FFF7EAFA54
:10167000032000F035F90120FFF7E4FA032000F021
:101680002FF90120FFF7DEFA022000F029F90120EE
:10169000FFF7D8FA0F2000F047F9012000F044F9D5
:1016A0000320FFF7CFFA282000F03EF9BDE8F04113
:1016B0000320FFF7C7BA00001400002010B5094C42
:1016C0000122E188A069FFF7AEFB0A2000F060F874
:1016D0000022E188A069FFF7A6FBBDE810403C208E
:1016E00000F056B814000020020003488188806989
:1016F00000D00122FFF797BB1400002000B587B08F
:1017000005A96846FFF7BEFC0398A8B3FFF7DAFC0B
:101710005FEA4000FEF709FE9FED191B53EC112B09
:10172000FEF791FDFEF70EFE17490A6842F002022D
:101730000A6016490A6822F010020A600A6822F05C
:1017400001020A600A6822F004020A600A6842F094
:1017500008020A600D49401E283108600920091D51
:1017600008600A49012014310860081F016821F04F
:101770000101016007B000BDFFE7FFF7A3FCC9E767
:101780008DEDB5A0F7C6B03E4038024000040040E1
:101790000949401E086008481C38016821F0010111
:1017A000016005492C390A6842F001020A600168AB
:1017B000C907FCD0704700002C04004070B50646F5
:1017C000002409E00120FFF78FFF284600F016F8FB
:1017D000641CE4B2102C02D2355D002DF2D170BD34
:1017E000491E01F00F01012804D041F0C00000BFE4
:1017F00000F09AB841F08000FAE700002DE9F84FB8
:101800000209364C02F0080302F0040B217802F0C2
:10181000020902F0010700F0080A00F0040600F0D7
:10182000020500F00108009301292FD0022952D1AE
:101830003A46218A206AFFF7F6FA4A46618A206A08
:10184000FFF7F1FA5A46A18A206AFFF7ECFAE18A1B
:10185000009A206AFFF7E7FAFFF730FF4246218A35
:10186000206AFFF7E0FA2A46618A206AFFF7DBFA6E
:101870003246A18A206AFFF7D6FA5246E18A206AE8
:10188000FFF7D1FABDE8F84FFFF718BF42462189AC
:10189000E069FFF7C8FA2A466189E069FFF7C3FAF1
:1018A0003246A189E069FFF7BEFA5246E189E06954
:1018B000FFF7B9FA3A46218A206AFFF7B4FA4A4696
:1018C000618A206AFFF7AFFA5A46A18A206AFFF7B9
:1018D000AAFA009AD2E7BDE8F88F000014000020B1
:1018E00070B505460020FFF7FFFE0E4C05F0010223
:1018F000218A206AFFF797FA05F00202618A206ABE
:10190000FFF791FA05F00402A18A206AFFF78BFA2B
:1019100005F00802E18A206AFFF785FABDE8704009
:10192000FFF7CCBE1400002010B504460020FFF7DE
:10193000DBFE2046BDE81040FFF760BF7FB5002406
:1019400012480094019402940F49039401604FF4EB
:10195000803141604902046181600125057680F88B
:1019600020400B49C0E90A14C561C46080F83040CA
:101970004561FFF73CF804200094CDE90150694629
:101980000248FEF78BFF7FBD002001408800002049
:101990000100000F2DE9F04387B014216846FEF7DF
:1019A00047FC36480024016841F08001016001686D
:1019B00001F080010591016841F0080101600168B2
:1019C00001F008010591016841F00401016001681E
:1019D00001F004010591016841F001010160016815
:1019E00001F001010591016841F0100101600068FA
:1019F000234F00F010004FF4706505900022294637
:101A00003846FFF710FADFF87C807E150022314659
:101A10004046FFF708FADFF870900022032148469D
:101A2000FFF701FA00950125CDE9015469463846D2
:101A30000394FFF719F98020CDE900046946404678
:101A40000294FFF711F90096CDE90154694640462A
:101A50000394FFF709F9CDE9006469460B48029445
:101A6000FFF702F903200090CDE90154694648468A
:101A70000394FFF7F9F807B0BDE8F083303802406F
:101A8000000C02400008024000100240000002402A
:101A900010B586B000241248009401940294039477
:101AA00004940E49059401605321C0E901140D49C5
:101AB000C0E9031444618461FFF70BFD4FF48050CB
:101AC000009069460648FFF745FD049404A90448C0
:101AD0000594FFF7DDFC06B010BD000000000140DA
:101AE000480000203F420F00FEE7704770477047F4
:101AF000FFF7A4B930B593B030216846FEF798FBE4
:101B000014210CA8FEF794FB18480025016841F049
:101B100080510160006800F0805011901448016805
:101B200041F4804101600068022400F4804011907B
:101B30000120039010200490009406940820CDE921
:101B400007505420CDE9090404200B906846FFF7A4
:101B5000FBFA0CA90F2031C1E002CDE90F050221EB
:101B60000CA8FFF7F7F913B030BD00004038024071
:101B7000007000401048016841F4700101600F4896
:101B8000016841F0010101600C4A00210832116036
:101B900002680B4B1A400260031D0A4A1A60026871
:101BA00022F48022026005480C3001600249580688
:101BB000803908607047000088ED00E0003802407E
:101BC000FFFFF6FE10300024F0B50268254C264DCC
:101BD000264E274F274B4FF0804CA04209D060453E
:101BE00007D0A84205D0B04203D0B84201D09842F5
:101BF00004D122F0700E4A6842EA0E02A0421BD0C5
:101C0000604519D0A84217D0B04215D0B84213D0C1
:101C1000984211D0184DA8420ED0184DA8420BD0B2
:101C2000174DA84208D0174DA84205D0164DA8421E
:101C300002D0164DA84203D122F44075CA682A4347
:101C40004D6922F080022A4302608A68C2620A68F3
:101C50008262A04201D0984201D109690163012149
:101C60004161F0BD00000140000400400008004058
:101C7000000C0040000401400040014000440140CD
:101C80000048014000180040001C004000200040B7
:101C900010B5846842EA032224F47F440A432243B5
:101CA000826010BD826822F070020A4342F0070190
:101CB0008160704710B5036A046A24F0010404626D
:101CC000846924F0F00444EA021423F00A020A436F
:101CD0008461026210BD10B5036A23F01003036231
:101CE0008369046A23F4704343EA023224F0A003B8
:101CF00043EA01118261016210BDFEE70FB4084B97
:101D000010B504A902AA039800F0DAF8044602A963
:101D1000002000F078FC204610BC5DF814FB0000A9
:101D2000072600080907090E002801DB034A02E024
:101D3000034A00F00F0081547047000000E400E007
:101D400014ED00E002E008C8121F08C1002AFAD111
:101D500070477047002001E001C1121F002AFBD12B
:101D6000704700002DE9FF5FDDE90220010DDDF87D
:101D700038B0024310D10F9801244CA2012808D09A
:101D8000002100980F9BC0E90021C0E90243BDE893
:101D9000FF9F6FEA0B01F4E7A1F2FF3144F6105008
:101DA00041430D140F9801280ED0A5EB0B00401CE9
:101DB0004FF000043E4EDFF8FC90B0F1000AA04660
:101DC00005DACAF1000717E0CBF10000F0E707469B
:101DD00012E0F80707D02246334640464946FEF750
:101DE00032FA804689462246334610461946FEF7A7
:101DF0002AFA04460E467F10002FEAD1DDE90201DF
:101E0000BAF1000F42464B4602DAFEF71CFA01E037
:101E1000FEF7ECFB04460E460022274BFEF76EFC55
:101E200003D84FF0FF30014607E00022234B204645
:101E30003146FEF734FBFEF748FC102409E0002C85
:101E40000ADB0A220023FEF7BBF9019B30321A5548
:101E5000641E50EA0102F2D1641C019AC4F111031C
:101E600014440F9A012A09D00122084301D15B458D
:101E70000FDD4FF0000205F101050DE0084303D12D
:101E8000A3EB0B056D1E09E000204FF0110B0F9026
:101E900088E701DA00226D1E002A83D000980F998E
:101EA000C0E90231C0E9004571E7000030000000E0
:101EB000000024400000F03F0000F0430000E03F3D
:101EC0002DE9FF4F95B09B4689460646002512E254
:101ED000252878D10024761CF94A2746012105944B
:101EE0003378203B01FA03F0104202D00443761C01
:101EF000F6E730782A2811D06FF02F033078A0F160
:101F00003002092A16D8059A44F0020402EB820234
:101F100003EB42021044761C0590EFE759F8042BBE
:101F20000592002A03DA504244F40054059044F02C
:101F30000204761C30782E2816D116F8010F44F0D2
:101F400004042A280DD06FF02F023078A0F130035E
:101F5000092B09D807EB870302EB4303C718761C4C
:101F6000F3E759F8047B761C30786C280FD006DC38
:101F70004C2817D068280DD06A2814D104E07428A2
:101F800010D07A280FD10DE044F400140AE044F494
:101F9000801401E044F440147278824202D1761C2D
:101FA00004F58014761C307866280BD013DC582892
:101FB00077D009DC002875D04528F6D04628F4D023
:101FC00047281AD19FE118E0632835D0642879D0DA
:101FD000652812D197E1702873D008DC6728F1D00A
:101FE00069286FD06E280DD06F2806D1B5E0732810
:101FF0002CD0752875D0782874D05A4617999047F8
:102000006D1C76E1C4F30250022809D003280DD0DC
:10201000D9F8001004280DD00D6009F1040968E119
:10202000D9F80010EA17C1E90052F6E7D9F8001014
:102030000D80F2E70D70F0E719F8041B8DF8001021
:1020400000208DF80100EA46012003E059F804ABB6
:102050004FF0FF3061074FF0000102D40DE008F1AE
:1020600001018846B9420FDA8045F8DB1AF80810FA
:102070000029F4D108E008F1010188468142FADB29
:102080001AF808100029F6D105985B46A0EB08075E
:1020900021463846179A00F09EFA284400EB0805BE
:1020A00007E04DE02BE10DE01AF8010B5A461799B5
:1020B0009047B8F10108F7D25B4621463846179A97
:1020C00014E142E00A220092C4F302524FF0000AE7
:1020D000022A08D059F804CB032A4FEAEC710AD03F
:1020E0000DE029E02AE009F1070121F00702F2E8FA
:1020F00002C1914609E00FFA8CFC4FEAEC71042A08
:1021000003D14FFA8CFC4FEAEC71002907DA0A463A
:102110000021DCF1000C61EB02012D2202E022051E
:1021200004D52B228DF80420012203E0E20701D020
:102130002022F7E7904653E00A2102E010220DE04A
:1021400010214FF0000A00910BE010224FF0000A1E
:1021500044F004040827009203E008224FF0000A2C
:102160000092C4F30252022A05D059F804CB002190
:10217000032A08D009E009F1070121F00702F2E87B
:1021800002C1914605E01FFA8CFC042A01D10CF033
:10219000FF0C4FF00008220722D5702827D0009BA3
:1021A00083F0100353EA0A0309D15CEA010206D066
:1021B00030228DF804208DF8050002229046009B05
:1021C00083F0080353EA0A030AD15CEA010201D151
:1021D000620705D530228DF804204FF001087F1EDC
:1021E000582809D037A003900EA8029013E040228F
:1021F0008DF804200122E1E737A0F4E7534660465A
:10220000009AFDF7DDFF84460398825C0298A0F1F6
:102210000100029002705CEA0100EFD1029806A969
:10222000A1EB000000F1200A600702D524F48034FD
:1022300000E00127574502DDA7EB0A0000E000207F
:1022400000EB0A01009005984144A0EB01000590C5
:10225000E00306D45B462146179A059800F0BBF9C7
:102260000544002706E001A85A46C05D179990472B
:102270006D1C7F1C4745F6DBE0030CD55B46214611
:10228000179A059800F0A7F9054404E030205A4653
:10229000179990476D1C0099481E00900029F5DCA5
:1022A00008E0029802995A460078491C0291179951
:1022B00090476D1CBAF10001AAF1010AF1DC6BE153
:1022C000092801003031323334353637383961620C
:1022D00063646566000000003031323334353637D0
:1022E00038394142434445460000000000F060F99F
:1022F000054406F10106307800287FF4E9AD19B0F5
:102300002846BDE8F08F620700D4062709F10702CE
:1023100022F0070CFCE80223E14603F000485FEAE4
:10232000080C02D00FF27C2C0DE05FEA045C02D5B1
:102330000FF2742C07E05FEAC47C02D00FF26C2C21
:1023400001E0AFF2700C4FF0FF3823F00043CDF8FE
:1023500050C065280CD006DC452809D046281DD081
:1023600047283ED13EE0662818D0672839D139E0A9
:102370000021112F01DB112000E0781CCDE90001C4
:1023800006A90EA8FFF7EEFCDDE90F010E9A0391F6
:102390000021009207F1010A04914EE04FF0004045
:1023A0000097CDE9011006A90EA8FFF7DBFCDDE9D7
:1023B0000F0203920E9B11990022DDF80CA00093EE
:1023C000049219B907F1010100EB010AB7EB0A0009
:1023D00004D4C0F1FF3007F1010A0490AAEB070012
:1023E000019046E0012F00DA01270021112F01DDC5
:1023F000112000E03846CDE9000106A90EA8FFF73C
:10240000B1FCDDE90F010E9A0391002104910092C5
:10241000BA4621070CD40399514500DA8A46BAF12D
:10242000010F05DD009AAAF10101515C302908D0A5
:10243000B84202DA10F1040F06DA0121CDE90110E9
:1024400017E0AAF10101E9E7002805DC049901443D
:102450000491AAEB000102E0411C514500DD8A46CF
:102460000499A0EB010000F1010001904FF0004041
:102470000290200704D40198504501DBCDF8048078
:1024800000208DF84F0002980DF14F07B0F1004F7A
:1024900025D02B200E9002984FF0020800280CDA6D
:1024A000404202902D200E9007E00A210298FDF78D
:1024B00062FF3031029007F8011DB8F10001A8F168
:1024C0000108F2DC02980028EFD1791E0E980870FE
:1024D000307800F0200040F0450007F8020D12A807
:1024E000A0EB070000F107081498007800B1012064
:1024F00000EB0A01019801EBE07105984144A0EB63
:102500000100A0F101000590E00306D45B462146DE
:10251000179A059800F05FF805441498007820B1E8
:102520005A461799904705F10105E00323D55B460C
:102530002146179A059800F04EF805441BE00498D0
:10254000002807DBDDE90301884203DD0098405CD9
:10255000179901E0179930205A46904704986D1C4E
:10256000401C04900198401E019004D12E205A4630
:10257000179990476D1CBAF10001AAF1010ADEDC3F
:1025800005E017F8010B5A46179990476D1CB8F1F2
:102590000001A8F10108F4DC5B462146179A059872
:1025A000A4E600002D0000002B0000002000000029
:1025B0002DE9F041044600251E461746880405D43F
:1025C00006E039462020B04705F10105641EF8D524
:1025D0002846BDE8F0812DE9F041044600251E465D
:1025E0009046C80301D5302700E02027880405D590
:1025F00006E041463846B04705F10105641EF8D5AE
:102600002846BDE8F0810A68531C0B6010707047C3
:10261000044900220B685A6209684A6A8242FCD364
:1026200070470000480000202DE9F041204C212097
:10263000204F00264FF40075206132462946384667
:10264000FEF7F1FB0320FFF7E3FF222020610122C8
:1026500029463846FEF7E7FB232020610A20FFF7D2
:10266000D7FF24202061002229463846FEF7DBFBF5
:102670002C20114F206129463846FEF7CFFB002859
:10268000F9D037204FF04208206105E0761C022087
:10269000C4F81080FFF7BCFF29463846FEF7BEFBA2
:1026A0000128F3D04D2020617000BDE8F0810000CA
:1026B0000000002000080240000002402DE9F04127
:1026C0001E4C21201E4D00264FF40077206132461B
:1026D00039462846FEF7A7FB0320FFF799FF222083
:1026E0002061012239462846FEF79DFB2320206108
:1026F0000A20FFF78DFF242020610022394628465A
:10270000FEF791FB2C20206180212846FEF786FBF6
:102710000028F9D037204227206104E0761C0220EF
:102720002761FFF775FF80212846FEF777FB012818
:10273000F4D04D2020617000BDE8F0810000002041
:10274000000802402DED048B4B4C88B00120206125
:10275000FEF77CFB02202061FFF7CCF9FFF71AF9A6
:10276000FFF796F9FFF7EAF84448FEF7E1FE032089
:1027700006254FF400664FF0040977104FF4007AF5
:102780004FF4807B9FED3E8B9FED3F9B4FF0070802
:1027900020613A48C4F810904030FEF7D5F9374828
:1027A00064214030FEF77EF934484030FEF71CF9D2
:1027B00020706420FEF746FAFFF736FFA060FDF7B1
:1027C000B4FD53EC182BFDF73EFD53EC192BFDF730
:1027D0003AFDFDF7B7FD60802561CDE90276CDE9D0
:1027E00000BA2B4B022201212A48FEF723FF608802
:1027F0000A2804D2A0880A2801D927A000E028A02E
:10280000FEF7DCFF227829A104A8FFF777FA04A8D5
:10281000FEF7D4FFFFF752FFE060FDF786FDB0EE54
:10282000481AF0EE681A53EC112BFDF70CFDB0EED0
:10283000491AF0EE691A53EC112BFDF704FDFDF770
:1028400081FDA080227819A104A8FFF757FAA0887B
:102850000A2806D260880A2803D9FEF7E6FE15A0EA
:1028600002E0FEF7E2FE16A0FEF7A8FF6420FEF7E6
:10287000E9F9C4F810808CE700000020480000202F
:102880009CC420B07268A13F000000000000E03F3F
:10289000000C024000100240476F206C6566740017
:1028A00052696768743A53616665000020543A259E
:1028B00064000000476F20726967687420000000A0
:1028C0004C6566743A5361666500000000000000C4
:1028D00000000000010203040607080900000000D0
:1028E0000102030404290008000000204800000041
:1028F000441D00084C2900084800002088040000FE
:10290000541D00080000000000000000000000004E
:102910000000000000000000010F3800000000006F
:1029200000000000000000000000000000000000A7
:102930000000000000000000000000000100000096
:0C29400010000000000000000024F40063
:040000050800018965
:00000001FF
